{
  "_format": "hh-sol-artifact-1",
  "contractName": "SafeTransferNFT",
  "sourceName": "contracts/SafeTransferNFT.sol",
  "abi": [
    {
      "anonymous": false,
      "inputs": [
        {
          "indexed": true,
          "internalType": "address",
          "name": "previousOwner",
          "type": "address"
        },
        {
          "indexed": true,
          "internalType": "address",
          "name": "newOwner",
          "type": "address"
        }
      ],
      "name": "OwnershipTransferred",
      "type": "event"
    },
    {
      "anonymous": false,
      "inputs": [
        {
          "indexed": false,
          "internalType": "address",
          "name": "account",
          "type": "address"
        }
      ],
      "name": "Paused",
      "type": "event"
    },
    {
      "anonymous": false,
      "inputs": [
        {
          "indexed": true,
          "internalType": "address",
          "name": "_from",
          "type": "address"
        },
        {
          "indexed": true,
          "internalType": "address",
          "name": "_to",
          "type": "address"
        },
        {
          "indexed": true,
          "internalType": "uint256",
          "name": "_id",
          "type": "uint256"
        },
        {
          "indexed": false,
          "internalType": "address",
          "name": "_contract",
          "type": "address"
        }
      ],
      "name": "SafeTransferNFTComplete",
      "type": "event"
    },
    {
      "anonymous": false,
      "inputs": [
        {
          "indexed": false,
          "internalType": "address",
          "name": "account",
          "type": "address"
        }
      ],
      "name": "Unpaused",
      "type": "event"
    },
    {
      "inputs": [
        {
          "internalType": "address",
          "name": "_from",
          "type": "address"
        },
        {
          "internalType": "bytes",
          "name": "secret",
          "type": "bytes"
        }
      ],
      "name": "completeTransfer",
      "outputs": [],
      "stateMutability": "nonpayable",
      "type": "function"
    },
    {
      "inputs": [
        {
          "internalType": "address",
          "name": "operator",
          "type": "address"
        },
        {
          "internalType": "address",
          "name": "from",
          "type": "address"
        },
        {
          "internalType": "uint256",
          "name": "tokenId",
          "type": "uint256"
        },
        {
          "internalType": "bytes",
          "name": "data",
          "type": "bytes"
        }
      ],
      "name": "onERC721Received",
      "outputs": [
        {
          "internalType": "bytes4",
          "name": "",
          "type": "bytes4"
        }
      ],
      "stateMutability": "nonpayable",
      "type": "function"
    },
    {
      "inputs": [],
      "name": "owner",
      "outputs": [
        {
          "internalType": "address",
          "name": "",
          "type": "address"
        }
      ],
      "stateMutability": "view",
      "type": "function"
    },
    {
      "inputs": [],
      "name": "pause",
      "outputs": [],
      "stateMutability": "nonpayable",
      "type": "function"
    },
    {
      "inputs": [],
      "name": "paused",
      "outputs": [
        {
          "internalType": "bool",
          "name": "",
          "type": "bool"
        }
      ],
      "stateMutability": "view",
      "type": "function"
    },
    {
      "inputs": [
        {
          "internalType": "address",
          "name": "_to",
          "type": "address"
        }
      ],
      "name": "pullTransfer",
      "outputs": [],
      "stateMutability": "nonpayable",
      "type": "function"
    },
    {
      "inputs": [],
      "name": "renounceOwnership",
      "outputs": [],
      "stateMutability": "nonpayable",
      "type": "function"
    },
    {
      "inputs": [
        {
          "internalType": "address",
          "name": "newOwner",
          "type": "address"
        }
      ],
      "name": "transferOwnership",
      "outputs": [],
      "stateMutability": "nonpayable",
      "type": "function"
    },
    {
      "inputs": [],
      "name": "unpause",
      "outputs": [],
      "stateMutability": "nonpayable",
      "type": "function"
    }
  ],
  "bytecode": "0x608060405234801561001057600080fd5b506000805460ff191690556100243361002d565b60018055610086565b600080546001600160a01b03838116610100818102610100600160a81b0319851617855560405193049190911692909183917f8be0079c531659141344cd1fd0a4f28419497f9722a3daafe3b4186f6b6457e091a35050565b610d1a806100956000396000f3fe608060405234801561001057600080fd5b50600436106100935760003560e01c80638456cb59116100665780638456cb59146100f15780638da5cb5b146100f9578063b099e8de14610122578063bdc3c4fa14610135578063f2fde38b1461014857600080fd5b8063150b7a02146100985780633f4ba83a146100c95780635c975abb146100d3578063715018a6146100e9575b600080fd5b6100ab6100a6366004610aac565b61015b565b6040516001600160e01b031990911681526020015b60405180910390f35b6100d161038c565b005b60005460ff1660405190151581526020016100c0565b6100d161040f565b6100d1610449565b60005461010090046001600160a01b03166040516001600160a01b0390911681526020016100c0565b6100d1610130366004610a8b565b6104a4565b6100d1610143366004610b42565b610633565b6100d1610156366004610a8b565b61088a565b6000805460ff16156101885760405162461bcd60e51b815260040161017f90610bff565b60405180910390fd5b60148210156101ff5760405162461bcd60e51b815260206004820152603b60248201527f536166655472616e736665724e46543a2064617461206d75737420636f6e746160448201527f696e206164647265737320616e64207365637265742076616c75650000000000606482015260840161017f565b600061020e6014828587610ca6565b8080601f01602080910402602001604051908101604052809392919081815260200183838082843760009201829052509394506102549250869150601490508188610ca6565b8080601f01602080910402602001604051908101604052809392919081815260200183838082843760009201919091525050825192935050602090911490506102ee5760405162461bcd60e51b815260206004820152602660248201527f536166655472616e736665724e46543a20496e76616c696420736563726574206044820152650d8cadccee8d60d31b606482015260840161017f565b60006102fb826020015190565b60408051606081018252338152602081018a90529081018290529091506000610325856014015190565b6001600160a01b039a8b166000908152600260208181526040808420948f16845293815291839020855181546001600160a01b0319169e169d909d178d559084015160018d0155920151999091019890985550630a85bd0160e11b98975050505050505050565b6000546001600160a01b036101009091041633146103bc5760405162461bcd60e51b815260040161017f90610c29565b60005460ff166104055760405162461bcd60e51b815260206004820152601460248201527314185d5cd8589b194e881b9bdd081c185d5cd95960621b604482015260640161017f565b61040d61092b565b565b6000546001600160a01b0361010090910416331461043f5760405162461bcd60e51b815260040161017f90610c29565b61040d60006109be565b6000546001600160a01b036101009091041633146104795760405162461bcd60e51b815260040161017f90610c29565b60005460ff161561049c5760405162461bcd60e51b815260040161017f90610bff565b61040d610a17565b600260015414156104f75760405162461bcd60e51b815260206004820152601f60248201527f5265656e7472616e637947756172643a207265656e7472616e742063616c6c00604482015260640161017f565b600260018181556001600160a01b0380841660009081526020848152604080832033845282529182902082516060810184528154909416808552948101549184019190915290930154928101929092526105635760405162461bcd60e51b815260040161017f90610c5e565b60408051606081018252600080825260208083018281528385018381526001600160a01b03888116855260028085528786203380885290865295889020965187546001600160a01b03191690831617875592516001870155905194909101939093558451908501519351632142170760e11b8152306004820152602481019290925260448201939093529116906342842e0e90606401600060405180830381600087803b15801561061357600080fd5b505af1158015610627573d6000803e3d6000fd5b50506001805550505050565b60005460ff16156106565760405162461bcd60e51b815260040161017f90610bff565b600260015414156106a95760405162461bcd60e51b815260206004820152601f60248201527f5265656e7472616e637947756172643a207265656e7472616e742063616c6c00604482015260640161017f565b600260018181556001600160a01b0380851660009081526020848152604080832033845282529182902082516060810184528154909416808552948101549184019190915290930154928101929092526107155760405162461bcd60e51b815260040161017f90610c5e565b8151602083012060408201511461076e5760405162461bcd60e51b815260206004820152601f60248201527f536166655472616e736665724e46543a20496e76616c69642073656372657400604482015260640161017f565b60408051606081018252600080825260208083018281528385018381526001600160a01b03898116855260028085528786203380885290865295889020965187546001600160a01b03191690831617875592516001870155905194909101939093558451908501519351632142170760e11b8152306004820152602481019290925260448201939093529116906342842e0e90606401600060405180830381600087803b15801561081e57600080fd5b505af1158015610832573d6000803e3d6000fd5b50505060208083015183516040516001600160a01b0391821681529193503392908716917fd785659b326dcfc76483264be76edd9c10c066cba7332f8022f39649840ec879910160405180910390a450506001805550565b6000546001600160a01b036101009091041633146108ba5760405162461bcd60e51b815260040161017f90610c29565b6001600160a01b03811661091f5760405162461bcd60e51b815260206004820152602660248201527f4f776e61626c653a206e6577206f776e657220697320746865207a65726f206160448201526564647265737360d01b606482015260840161017f565b610928816109be565b50565b60005460ff166109745760405162461bcd60e51b815260206004820152601460248201527314185d5cd8589b194e881b9bdd081c185d5cd95960621b604482015260640161017f565b6000805460ff191690557f5db9ee0a495bf2e6ff9c91a7834c1ba4fdd244a5e8aa4e537bd38aeae4b073aa335b6040516001600160a01b03909116815260200160405180910390a1565b600080546001600160a01b03838116610100818102610100600160a81b0319851617855560405193049190911692909183917f8be0079c531659141344cd1fd0a4f28419497f9722a3daafe3b4186f6b6457e091a35050565b60005460ff1615610a3a5760405162461bcd60e51b815260040161017f90610bff565b6000805460ff191660011790557f62e78cea01bee320cd4e420270b5ea74000d11b0c9f74754ebdbfc544b05a2586109a13390565b80356001600160a01b0381168114610a8657600080fd5b919050565b600060208284031215610a9c578081fd5b610aa582610a6f565b9392505050565b600080600080600060808688031215610ac3578081fd5b610acc86610a6f565b9450610ada60208701610a6f565b935060408601359250606086013567ffffffffffffffff80821115610afd578283fd5b818801915088601f830112610b10578283fd5b813581811115610b1e578384fd5b896020828501011115610b2f578384fd5b9699959850939650602001949392505050565b60008060408385031215610b54578182fd5b610b5d83610a6f565b9150602083013567ffffffffffffffff80821115610b79578283fd5b818501915085601f830112610b8c578283fd5b813581811115610b9e57610b9e610cce565b604051601f8201601f19908116603f01168101908382118183101715610bc657610bc6610cce565b81604052828152886020848701011115610bde578586fd5b82602086016020830137856020848301015280955050505050509250929050565b60208082526010908201526f14185d5cd8589b194e881c185d5cd95960821b604082015260600190565b6020808252818101527f4f776e61626c653a2063616c6c6572206973206e6f7420746865206f776e6572604082015260600190565b60208082526028908201527f536166655472616e736665724e46543a204e6f207472616e7366657220696e2060408201526770726f677265737360c01b606082015260800190565b60008085851115610cb5578182fd5b83861115610cc1578182fd5b5050820193919092039150565b634e487b7160e01b600052604160045260246000fdfea2646970667358221220c05e06967e639dbcdf9fe0638b7bc3535785bca5b5fd77eb48ad5ea55cae31ff64736f6c63430008040033",
  "linkReferences": {},
  "deployedLinkReferences": {}
}