{
  "_format": "hh-sol-artifact-1",
  "contractName": "SafeTransfer",
  "sourceName": "contracts/SafeTransfer.sol",
  "abi": [
    {
      "anonymous": false,
      "inputs": [
        {
          "indexed": true,
          "internalType": "address",
          "name": "previousOwner",
          "type": "address"
        },
        {
          "indexed": true,
          "internalType": "address",
          "name": "newOwner",
          "type": "address"
        }
      ],
      "name": "OwnershipTransferred",
      "type": "event"
    },
    {
      "anonymous": false,
      "inputs": [
        {
          "indexed": false,
          "internalType": "address",
          "name": "account",
          "type": "address"
        }
      ],
      "name": "Paused",
      "type": "event"
    },
    {
      "anonymous": false,
      "inputs": [
        {
          "indexed": true,
          "internalType": "address",
          "name": "_from",
          "type": "address"
        },
        {
          "indexed": true,
          "internalType": "address",
          "name": "_to",
          "type": "address"
        },
        {
          "indexed": true,
          "internalType": "uint256",
          "name": "amount",
          "type": "uint256"
        }
      ],
      "name": "SafeTransferComplete",
      "type": "event"
    },
    {
      "anonymous": false,
      "inputs": [
        {
          "indexed": false,
          "internalType": "address",
          "name": "account",
          "type": "address"
        }
      ],
      "name": "Unpaused",
      "type": "event"
    },
    {
      "inputs": [
        {
          "internalType": "address",
          "name": "_from",
          "type": "address"
        },
        {
          "internalType": "bytes",
          "name": "_secret",
          "type": "bytes"
        }
      ],
      "name": "completeTransfer",
      "outputs": [],
      "stateMutability": "nonpayable",
      "type": "function"
    },
    {
      "inputs": [
        {
          "internalType": "address",
          "name": "_from",
          "type": "address"
        }
      ],
      "name": "getTransfer",
      "outputs": [
        {
          "internalType": "uint256",
          "name": "",
          "type": "uint256"
        }
      ],
      "stateMutability": "view",
      "type": "function"
    },
    {
      "inputs": [
        {
          "internalType": "address",
          "name": "_to",
          "type": "address"
        },
        {
          "internalType": "bytes32",
          "name": "_secret",
          "type": "bytes32"
        }
      ],
      "name": "initiateTransfer",
      "outputs": [],
      "stateMutability": "payable",
      "type": "function"
    },
    {
      "inputs": [],
      "name": "owner",
      "outputs": [
        {
          "internalType": "address",
          "name": "",
          "type": "address"
        }
      ],
      "stateMutability": "view",
      "type": "function"
    },
    {
      "inputs": [],
      "name": "pause",
      "outputs": [],
      "stateMutability": "nonpayable",
      "type": "function"
    },
    {
      "inputs": [],
      "name": "paused",
      "outputs": [
        {
          "internalType": "bool",
          "name": "",
          "type": "bool"
        }
      ],
      "stateMutability": "view",
      "type": "function"
    },
    {
      "inputs": [
        {
          "internalType": "address",
          "name": "_to",
          "type": "address"
        }
      ],
      "name": "pullTransfer",
      "outputs": [],
      "stateMutability": "nonpayable",
      "type": "function"
    },
    {
      "inputs": [],
      "name": "renounceOwnership",
      "outputs": [],
      "stateMutability": "nonpayable",
      "type": "function"
    },
    {
      "inputs": [
        {
          "internalType": "address",
          "name": "newOwner",
          "type": "address"
        }
      ],
      "name": "transferOwnership",
      "outputs": [],
      "stateMutability": "nonpayable",
      "type": "function"
    },
    {
      "inputs": [],
      "name": "unpause",
      "outputs": [],
      "stateMutability": "nonpayable",
      "type": "function"
    }
  ],
  "bytecode": "0x608060405234801561001057600080fd5b506000805460ff191690556100243361002d565b60018055610086565b600080546001600160a01b03838116610100818102610100600160a81b0319851617855560405193049190911692909183917f8be0079c531659141344cd1fd0a4f28419497f9722a3daafe3b4186f6b6457e091a35050565b610beb806100956000396000f3fe6080604052600436106100915760003560e01c8063acba27ff11610059578063acba27ff14610135578063b099e8de14610148578063bdc3c4fa14610168578063db0d517514610188578063f2fde38b146101d757600080fd5b80633f4ba83a146100965780635c975abb146100ad578063715018a6146100d55780638456cb59146100ea5780638da5cb5b146100ff575b600080fd5b3480156100a257600080fd5b506100ab6101f7565b005b3480156100b957600080fd5b5060005460ff1660405190151581526020015b60405180910390f35b3480156100e157600080fd5b506100ab610283565b3480156100f657600080fd5b506100ab6102bd565b34801561010b57600080fd5b5060005461010090046001600160a01b03166040516001600160a01b0390911681526020016100cc565b6100ab6101433660046109de565b610318565b34801561015457600080fd5b506100ab6101633660046109bd565b61042b565b34801561017457600080fd5b506100ab610183366004610a07565b61050c565b34801561019457600080fd5b506101c96101a33660046109bd565b6001600160a01b0316600090815260026020908152604080832033845290915290205490565b6040519081526020016100cc565b3480156101e357600080fd5b506100ab6101f23660046109bd565b61069e565b6000546001600160a01b036101009091041633146102305760405162461bcd60e51b815260040161022790610b33565b60405180910390fd5b60005460ff166102795760405162461bcd60e51b815260206004820152601460248201527314185d5cd8589b194e881b9bdd081c185d5cd95960621b6044820152606401610227565b61028161073f565b565b6000546001600160a01b036101009091041633146102b35760405162461bcd60e51b815260040161022790610b33565b61028160006107d2565b6000546001600160a01b036101009091041633146102ed5760405162461bcd60e51b815260040161022790610b33565b60005460ff16156103105760405162461bcd60e51b815260040161022790610ac4565b61028161082b565b60005460ff161561033b5760405162461bcd60e51b815260040161022790610ac4565b6002600154141561035e5760405162461bcd60e51b815260040161022790610b68565b60026001819055336000908152602091825260408082206001600160a01b03861683529092522054156103e65760405162461bcd60e51b815260206004820152602a60248201527f536166655472616e736665723a205472616e7366657220616c726561647920696044820152696e2070726f677265737360b01b6064820152608401610227565b3360008181526002602090815260408083206001600160a01b039690961680845295825280832034905592825260038152828220948252939093529091205560018055565b6002600154141561044e5760405162461bcd60e51b815260040161022790610b68565b60026001819055336000908152602091825260408082206001600160a01b038516835290925220546104925760405162461bcd60e51b815260040161022790610aee565b3360008181526002602090815260408083206001600160a01b03861680855290835281842080549085905594845260038352818420908452909152902054156104fa573360009081526003602090815260408083206001600160a01b03861684529091528120555b6105043382610883565b505060018055565b60005460ff161561052f5760405162461bcd60e51b815260040161022790610ac4565b600260015414156105525760405162461bcd60e51b815260040161022790610b68565b600260018190556001600160a01b03831660009081526020918252604080822033835290925220546105965760405162461bcd60e51b815260040161022790610aee565b6001600160a01b038216600090815260036020908152604080832033845282529091205482519183019190912081146106115760405162461bcd60e51b815260206004820152601e60248201527f536166655472616e736665723a20496e636f72726563742073656372657400006044820152606401610227565b6001600160a01b0383166000818152600260209081526040808320338085529083528184208054908590559484526003835281842081855290925282209190915561065c9082610883565b604051819033906001600160a01b038716907f999f4f64d1ceb4eb6dd132de16b4f64d4608a154b3a00f37c8d5afad841250e290600090a45050600180555050565b6000546001600160a01b036101009091041633146106ce5760405162461bcd60e51b815260040161022790610b33565b6001600160a01b0381166107335760405162461bcd60e51b815260206004820152602660248201527f4f776e61626c653a206e6577206f776e657220697320746865207a65726f206160448201526564647265737360d01b6064820152608401610227565b61073c816107d2565b50565b60005460ff166107885760405162461bcd60e51b815260206004820152601460248201527314185d5cd8589b194e881b9bdd081c185d5cd95960621b6044820152606401610227565b6000805460ff191690557f5db9ee0a495bf2e6ff9c91a7834c1ba4fdd244a5e8aa4e537bd38aeae4b073aa335b6040516001600160a01b03909116815260200160405180910390a1565b600080546001600160a01b03838116610100818102610100600160a81b0319851617855560405193049190911692909183917f8be0079c531659141344cd1fd0a4f28419497f9722a3daafe3b4186f6b6457e091a35050565b60005460ff161561084e5760405162461bcd60e51b815260040161022790610ac4565b6000805460ff191660011790557f62e78cea01bee320cd4e420270b5ea74000d11b0c9f74754ebdbfc544b05a2586107b53390565b804710156108d35760405162461bcd60e51b815260206004820152601d60248201527f416464726573733a20696e73756666696369656e742062616c616e63650000006044820152606401610227565b6000826001600160a01b03168260405160006040518083038185875af1925050503d8060008114610920576040519150601f19603f3d011682016040523d82523d6000602084013e610925565b606091505b505090508061099c5760405162461bcd60e51b815260206004820152603a60248201527f416464726573733a20756e61626c6520746f2073656e642076616c75652c207260448201527f6563697069656e74206d617920686176652072657665727465640000000000006064820152608401610227565b505050565b80356001600160a01b03811681146109b857600080fd5b919050565b6000602082840312156109ce578081fd5b6109d7826109a1565b9392505050565b600080604083850312156109f0578081fd5b6109f9836109a1565b946020939093013593505050565b60008060408385031215610a19578182fd5b610a22836109a1565b9150602083013567ffffffffffffffff80821115610a3e578283fd5b818501915085601f830112610a51578283fd5b813581811115610a6357610a63610b9f565b604051601f8201601f19908116603f01168101908382118183101715610a8b57610a8b610b9f565b81604052828152886020848701011115610aa3578586fd5b82602086016020830137856020848301015280955050505050509250929050565b60208082526010908201526f14185d5cd8589b194e881c185d5cd95960821b604082015260600190565b60208082526025908201527f536166655472616e736665723a204e6f207472616e7366657220696e2070726f604082015264677265737360d81b606082015260800190565b6020808252818101527f4f776e61626c653a2063616c6c6572206973206e6f7420746865206f776e6572604082015260600190565b6020808252601f908201527f5265656e7472616e637947756172643a207265656e7472616e742063616c6c00604082015260600190565b634e487b7160e01b600052604160045260246000fdfea2646970667358221220ccce663dda991513a628345294be5665028a766ab2b1265349e9aca30242b9dc64736f6c63430008040033",
  "linkReferences": {},
  "deployedLinkReferences": {}
}