{
  "_format": "hh-sol-artifact-1",
  "contractName": "SafeTransfer",
  "sourceName": "contracts/SafeTransfer.sol",
  "abi": [
    {
      "anonymous": false,
      "inputs": [],
      "name": "Pause",
      "type": "event"
    },
    {
      "anonymous": false,
      "inputs": [
        {
          "indexed": true,
          "internalType": "address",
          "name": "_from",
          "type": "address"
        },
        {
          "indexed": true,
          "internalType": "address",
          "name": "_to",
          "type": "address"
        },
        {
          "indexed": true,
          "internalType": "uint256",
          "name": "amount",
          "type": "uint256"
        }
      ],
      "name": "SafeTransferComplete",
      "type": "event"
    },
    {
      "anonymous": false,
      "inputs": [],
      "name": "Unpause",
      "type": "event"
    },
    {
      "inputs": [
        {
          "internalType": "address",
          "name": "_from",
          "type": "address"
        },
        {
          "internalType": "bytes",
          "name": "_secret",
          "type": "bytes"
        }
      ],
      "name": "completeTransfer",
      "outputs": [],
      "stateMutability": "nonpayable",
      "type": "function"
    },
    {
      "inputs": [
        {
          "internalType": "address",
          "name": "_from",
          "type": "address"
        }
      ],
      "name": "getTransfer",
      "outputs": [
        {
          "internalType": "uint256",
          "name": "",
          "type": "uint256"
        }
      ],
      "stateMutability": "view",
      "type": "function"
    },
    {
      "inputs": [
        {
          "internalType": "address",
          "name": "_to",
          "type": "address"
        },
        {
          "internalType": "bytes32",
          "name": "_secret",
          "type": "bytes32"
        }
      ],
      "name": "initiateTransfer",
      "outputs": [],
      "stateMutability": "payable",
      "type": "function"
    },
    {
      "inputs": [],
      "name": "pause",
      "outputs": [],
      "stateMutability": "nonpayable",
      "type": "function"
    },
    {
      "inputs": [],
      "name": "paused",
      "outputs": [
        {
          "internalType": "bool",
          "name": "",
          "type": "bool"
        }
      ],
      "stateMutability": "view",
      "type": "function"
    },
    {
      "inputs": [
        {
          "internalType": "address",
          "name": "_to",
          "type": "address"
        }
      ],
      "name": "pullTransfer",
      "outputs": [],
      "stateMutability": "nonpayable",
      "type": "function"
    },
    {
      "inputs": [],
      "name": "unpause",
      "outputs": [],
      "stateMutability": "nonpayable",
      "type": "function"
    }
  ],
  "bytecode": "0x60806040526000805460ff1916905534801561001a57600080fd5b506001805561086c8061002e6000396000f3fe6080604052600436106100705760003560e01c8063acba27ff1161004e578063acba27ff146100d0578063b099e8de146100e3578063bdc3c4fa14610103578063db0d51751461012357600080fd5b80633f4ba83a146100755780635c975abb1461008c5780638456cb59146100bb575b600080fd5b34801561008157600080fd5b5061008a610172565b005b34801561009857600080fd5b506000546100a69060ff1681565b60405190151581526020015b60405180910390f35b3480156100c757600080fd5b5061008a6101b4565b61008a6100de3660046106be565b6101fa565b3480156100ef57600080fd5b5061008a6100fe36600461069d565b610303565b34801561010f57600080fd5b5061008a61011e3660046106e7565b6103e4565b34801561012f57600080fd5b5061016461013e36600461069d565b6001600160a01b0316600090815260026020908152604080832033845290915290205490565b6040519081526020016100b2565b60005460ff1661018157600080fd5b6000805460ff191681556040517f7805862f689e2f13df9f062ff482ad3ad112aca9e0847911ed832e158c525b339190a1565b60005460ff16156101c457600080fd5b6000805460ff191660011781556040517f6985a02210a168e66602d3235cb6db0e70f92b3ba4d376a33c0f3d9434bff6259190a1565b60005460ff161561020a57600080fd5b600260015414156102365760405162461bcd60e51b815260040161022d906107e9565b60405180910390fd5b60026001819055336000908152602091825260408082206001600160a01b03861683529092522054156102be5760405162461bcd60e51b815260206004820152602a60248201527f536166655472616e736665723a205472616e7366657220616c726561647920696044820152696e2070726f677265737360b01b606482015260840161022d565b3360008181526002602090815260408083206001600160a01b039690961680845295825280832034905592825260038152828220948252939093529091205560018055565b600260015414156103265760405162461bcd60e51b815260040161022d906107e9565b60026001819055336000908152602091825260408082206001600160a01b0385168352909252205461036a5760405162461bcd60e51b815260040161022d906107a4565b3360008181526002602090815260408083206001600160a01b03861680855290835281842080549085905594845260038352818420908452909152902054156103d2573360009081526003602090815260408083206001600160a01b03861684529091528120555b6103dc3382610563565b505060018055565b60005460ff16156103f457600080fd5b600260015414156104175760405162461bcd60e51b815260040161022d906107e9565b600260018190556001600160a01b038316600090815260209182526040808220338352909252205461045b5760405162461bcd60e51b815260040161022d906107a4565b6001600160a01b038216600090815260036020908152604080832033845282529091205482519183019190912081146104d65760405162461bcd60e51b815260206004820152601e60248201527f536166655472616e736665723a20496e636f7272656374207365637265740000604482015260640161022d565b6001600160a01b038316600081815260026020908152604080832033808552908352818420805490859055948452600383528184208185529092528220919091556105219082610563565b604051819033906001600160a01b038716907f999f4f64d1ceb4eb6dd132de16b4f64d4608a154b3a00f37c8d5afad841250e290600090a45050600180555050565b804710156105b35760405162461bcd60e51b815260206004820152601d60248201527f416464726573733a20696e73756666696369656e742062616c616e6365000000604482015260640161022d565b6000826001600160a01b03168260405160006040518083038185875af1925050503d8060008114610600576040519150601f19603f3d011682016040523d82523d6000602084013e610605565b606091505b505090508061067c5760405162461bcd60e51b815260206004820152603a60248201527f416464726573733a20756e61626c6520746f2073656e642076616c75652c207260448201527f6563697069656e74206d61792068617665207265766572746564000000000000606482015260840161022d565b505050565b80356001600160a01b038116811461069857600080fd5b919050565b6000602082840312156106ae578081fd5b6106b782610681565b9392505050565b600080604083850312156106d0578081fd5b6106d983610681565b946020939093013593505050565b600080604083850312156106f9578182fd5b61070283610681565b9150602083013567ffffffffffffffff8082111561071e578283fd5b818501915085601f830112610731578283fd5b81358181111561074357610743610820565b604051601f8201601f19908116603f0116810190838211818310171561076b5761076b610820565b81604052828152886020848701011115610783578586fd5b82602086016020830137856020848301015280955050505050509250929050565b60208082526025908201527f536166655472616e736665723a204e6f207472616e7366657220696e2070726f604082015264677265737360d81b606082015260800190565b6020808252601f908201527f5265656e7472616e637947756172643a207265656e7472616e742063616c6c00604082015260600190565b634e487b7160e01b600052604160045260246000fdfea2646970667358221220182d16ebba1eb6b0cca252999ef1ba4cb3bca1753a06674e94892050622b6ec364736f6c63430008040033",
  "linkReferences": {},
  "deployedLinkReferences": {}
}