{
  "_format": "hh-sol-artifact-1",
  "contractName": "SafeTransferNFT",
  "sourceName": "contracts/SafeTransferNFT.sol",
  "abi": [
    {
      "anonymous": false,
      "inputs": [],
      "name": "Pause",
      "type": "event"
    },
    {
      "anonymous": false,
      "inputs": [
        {
          "indexed": true,
          "internalType": "address",
          "name": "_from",
          "type": "address"
        },
        {
          "indexed": true,
          "internalType": "address",
          "name": "_to",
          "type": "address"
        },
        {
          "indexed": true,
          "internalType": "uint256",
          "name": "_id",
          "type": "uint256"
        },
        {
          "indexed": false,
          "internalType": "address",
          "name": "_contract",
          "type": "address"
        }
      ],
      "name": "SafeTransferNFTComplete",
      "type": "event"
    },
    {
      "anonymous": false,
      "inputs": [],
      "name": "Unpause",
      "type": "event"
    },
    {
      "inputs": [
        {
          "internalType": "address",
          "name": "_from",
          "type": "address"
        },
        {
          "internalType": "bytes",
          "name": "secret",
          "type": "bytes"
        }
      ],
      "name": "completeTransfer",
      "outputs": [],
      "stateMutability": "nonpayable",
      "type": "function"
    },
    {
      "inputs": [
        {
          "internalType": "address",
          "name": "operator",
          "type": "address"
        },
        {
          "internalType": "address",
          "name": "from",
          "type": "address"
        },
        {
          "internalType": "uint256",
          "name": "tokenId",
          "type": "uint256"
        },
        {
          "internalType": "bytes",
          "name": "data",
          "type": "bytes"
        }
      ],
      "name": "onERC721Received",
      "outputs": [
        {
          "internalType": "bytes4",
          "name": "",
          "type": "bytes4"
        }
      ],
      "stateMutability": "nonpayable",
      "type": "function"
    },
    {
      "inputs": [],
      "name": "pause",
      "outputs": [],
      "stateMutability": "nonpayable",
      "type": "function"
    },
    {
      "inputs": [],
      "name": "paused",
      "outputs": [
        {
          "internalType": "bool",
          "name": "",
          "type": "bool"
        }
      ],
      "stateMutability": "view",
      "type": "function"
    },
    {
      "inputs": [
        {
          "internalType": "address",
          "name": "_to",
          "type": "address"
        }
      ],
      "name": "pullTransfer",
      "outputs": [],
      "stateMutability": "nonpayable",
      "type": "function"
    },
    {
      "inputs": [],
      "name": "unpause",
      "outputs": [],
      "stateMutability": "nonpayable",
      "type": "function"
    }
  ],
  "bytecode": "0x60806040526000805460ff1916905534801561001a57600080fd5b506108fc8061002a6000396000f3fe608060405234801561001057600080fd5b50600436106100625760003560e01c8063150b7a02146100675780633f4ba83a146100985780635c975abb146100a25780638456cb59146100bf578063b099e8de146100c7578063bdc3c4fa146100da575b600080fd5b61007a6100753660046106ed565b6100ed565b6040516001600160e01b031990911681526020015b60405180910390f35b6100a0610309565b005b6000546100af9060ff1681565b604051901515815260200161008f565b6100a061034b565b6100a06100d53660046106cc565b610391565b6100a06100e8366004610783565b6104c6565b6000805460ff16156100fe57600080fd5b601482101561017a5760405162461bcd60e51b815260206004820152603b60248201527f536166655472616e736665724e46543a2064617461206d75737420636f6e746160448201527f696e206164647265737320616e64207365637265742076616c7565000000000060648201526084015b60405180910390fd5b60006101896014828587610888565b8080601f01602080910402602001604051908101604052809392919081815260200183838082843760009201829052509394506101cf9250869150601490508188610888565b8080601f01602080910402602001604051908101604052809392919081815260200183838082843760009201919091525050825192935050602090911490506102695760405162461bcd60e51b815260206004820152602660248201527f536166655472616e736665724e46543a20496e76616c696420736563726574206044820152650d8cadccee8d60d31b6064820152608401610171565b6000610276826020015190565b60408051606081018252338152602081018a905290810182905290915060006102a0856014015190565b6001600160a01b039a8b166000908152600160208181526040808420948f16845293815291839020855181546001600160a01b0319169e169d909d178d5590840151908c0155919091015160029099019890985550630a85bd0160e11b98975050505050505050565b60005460ff1661031857600080fd5b6000805460ff191681556040517f7805862f689e2f13df9f062ff482ad3ad112aca9e0847911ed832e158c525b339190a1565b60005460ff161561035b57600080fd5b6000805460ff191660011781556040517f6985a02210a168e66602d3235cb6db0e70f92b3ba4d376a33c0f3d9434bff6259190a1565b6001600160a01b03808216600090815260016020818152604080842033855282529283902083516060810185528154909516808652928101549185019190915260020154918301919091526103f85760405162461bcd60e51b815260040161017190610840565b60408051606081018252600080825260208083018281528385018381526001600160a01b03888116855260018085528786203380885290865295889020965187546001600160a01b031916908316178755925192860192909255516002909401939093558451908501519351632142170760e11b8152306004820152602481019290925260448201939093529116906342842e0e90606401600060405180830381600087803b1580156104aa57600080fd5b505af11580156104be573d6000803e3d6000fd5b505050505050565b60005460ff16156104d657600080fd5b6001600160a01b038083166000908152600160208181526040808420338552825292839020835160608101855281549095168086529281015491850191909152600201549183019190915261053d5760405162461bcd60e51b815260040161017190610840565b815160208301206040820151146105965760405162461bcd60e51b815260206004820152601f60248201527f536166655472616e736665724e46543a20496e76616c696420736563726574006044820152606401610171565b60408051606081018252600080825260208083018281528385018381526001600160a01b03898116855260018085528786203380885290865295889020965187546001600160a01b031916908316178755925192860192909255516002909401939093558451908501519351632142170760e11b8152306004820152602481019290925260448201939093529116906342842e0e90606401600060405180830381600087803b15801561064857600080fd5b505af115801561065c573d6000803e3d6000fd5b50505060208083015183516040516001600160a01b0391821681529193503392908716917fd785659b326dcfc76483264be76edd9c10c066cba7332f8022f39649840ec879910160405180910390a4505050565b80356001600160a01b03811681146106c757600080fd5b919050565b6000602082840312156106dd578081fd5b6106e6826106b0565b9392505050565b600080600080600060808688031215610704578081fd5b61070d866106b0565b945061071b602087016106b0565b935060408601359250606086013567ffffffffffffffff8082111561073e578283fd5b818801915088601f830112610751578283fd5b81358181111561075f578384fd5b896020828501011115610770578384fd5b9699959850939650602001949392505050565b60008060408385031215610795578182fd5b61079e836106b0565b9150602083013567ffffffffffffffff808211156107ba578283fd5b818501915085601f8301126107cd578283fd5b8135818111156107df576107df6108b0565b604051601f8201601f19908116603f01168101908382118183101715610807576108076108b0565b8160405282815288602084870101111561081f578586fd5b82602086016020830137856020848301015280955050505050509250929050565b60208082526028908201527f536166655472616e736665724e46543a204e6f207472616e7366657220696e2060408201526770726f677265737360c01b606082015260800190565b60008085851115610897578182fd5b838611156108a3578182fd5b5050820193919092039150565b634e487b7160e01b600052604160045260246000fdfea2646970667358221220eb294330fbc6b27c04b9a82bb60d02ca3169d15eb729e32af6b4ee22c513646464736f6c63430008040033",
  "linkReferences": {},
  "deployedLinkReferences": {}
}