{
  "_format": "hh-sol-artifact-1",
  "contractName": "SafeTransferNFT",
  "sourceName": "contracts/SafeTransferNFT.sol",
  "abi": [
    {
      "anonymous": false,
      "inputs": [
        {
          "indexed": true,
          "internalType": "address",
          "name": "to",
          "type": "address"
        },
        {
          "indexed": true,
          "internalType": "uint256",
          "name": "secret",
          "type": "uint256"
        },
        {
          "indexed": true,
          "internalType": "bytes",
          "name": "data",
          "type": "bytes"
        }
      ],
      "name": "LogEvent",
      "type": "event"
    },
    {
      "anonymous": false,
      "inputs": [
        {
          "indexed": true,
          "internalType": "address",
          "name": "_from",
          "type": "address"
        },
        {
          "indexed": true,
          "internalType": "address",
          "name": "_to",
          "type": "address"
        },
        {
          "indexed": true,
          "internalType": "uint256",
          "name": "_id",
          "type": "uint256"
        },
        {
          "indexed": false,
          "internalType": "address",
          "name": "_contract",
          "type": "address"
        }
      ],
      "name": "SafeTransferNFTComplete",
      "type": "event"
    },
    {
      "inputs": [
        {
          "internalType": "address",
          "name": "_from",
          "type": "address"
        },
        {
          "internalType": "uint256",
          "name": "secret",
          "type": "uint256"
        }
      ],
      "name": "completeTransfer",
      "outputs": [],
      "stateMutability": "nonpayable",
      "type": "function"
    },
    {
      "inputs": [],
      "name": "initialize",
      "outputs": [],
      "stateMutability": "nonpayable",
      "type": "function"
    },
    {
      "inputs": [
        {
          "internalType": "address",
          "name": "operator",
          "type": "address"
        },
        {
          "internalType": "address",
          "name": "from",
          "type": "address"
        },
        {
          "internalType": "uint256",
          "name": "tokenId",
          "type": "uint256"
        },
        {
          "internalType": "bytes",
          "name": "data",
          "type": "bytes"
        }
      ],
      "name": "onERC721Received",
      "outputs": [
        {
          "internalType": "bytes4",
          "name": "",
          "type": "bytes4"
        }
      ],
      "stateMutability": "nonpayable",
      "type": "function"
    },
    {
      "inputs": [
        {
          "internalType": "address",
          "name": "_to",
          "type": "address"
        }
      ],
      "name": "pullTransfer",
      "outputs": [],
      "stateMutability": "nonpayable",
      "type": "function"
    }
  ],
  "bytecode": "0x608060405234801561001057600080fd5b50610946806100206000396000f3fe608060405234801561001057600080fd5b506004361061004c5760003560e01c8063150b7a02146100515780638129fc1c14610081578063954b030c1461008b578063b099e8de1461009e575b600080fd5b61006461005f366004610734565b6100b1565b6040516001600160e01b0319909116815260200160405180910390f35b6100896102a6565b005b6100896100993660046107cf565b610359565b6100896100ac366004610712565b61052c565b6000601482101561012f5760405162461bcd60e51b815260206004820152603b60248201527f536166655472616e736665724e46543a2064617461206d75737420636f6e746160448201527f696e206164647265737320616e64207365637265742076616c7565000000000060648201526084015b60405180910390fd5b600061013e6014828587610851565b8080601f01602080910402602001604051908101604052809392919081815260200183838082843760009201829052509394506101849250869150601490508188610851565b8080601f01602080910402602001604051908101604052809392919081815260200183838082843760009201829052509394506101c692508491506106699050565b60408051606081018252338152602081018a905290810182905290915060006101f0856014015190565b6001600160a01b038b811660009081526001602081815260408084208686168552825292839020875181546001600160a01b031916951694909417845586015190830155848101516002909201919091555190915061025290899089906107f9565b6040519081900381209084906001600160a01b038416907fae4a63dee8d2a0ab0142e7877ef03d701b8cfe023847f0c6ddbf1b42ff3dd3b190600090a450630a85bd0160e11b9a9950505050505050505050565b600054610100900460ff16806102bf575060005460ff16155b6103225760405162461bcd60e51b815260206004820152602e60248201527f496e697469616c697a61626c653a20636f6e747261637420697320616c72656160448201526d191e481a5b9a5d1a585b1a5e995960921b6064820152608401610126565b600054610100900460ff16158015610344576000805461ffff19166101011790555b8015610356576000805461ff00191690555b50565b6001600160a01b03808316600090815260016020818152604080842033855282529283902083516060810185528154909516808652928101549185019190915260020154918301919091526103c05760405162461bcd60e51b815260040161012690610809565b818160400151146104135760405162461bcd60e51b815260206004820152601f60248201527f536166655472616e736665724e46543a20496e76616c696420736563726574006044820152606401610126565b80516020820151604051632142170760e11b815230600482015233602482015260448101919091526001600160a01b03909116906342842e0e90606401600060405180830381600087803b15801561046a57600080fd5b505af115801561047e573d6000803e3d6000fd5b505060408051606081018252600080825260208083018281528385018381526001600160a01b038b811680865260018086528887203380895290875296899020975188546001600160a01b0319169084161788559351938701939093559051600290950194909455878201518851955195909416855292955090935090917fd785659b326dcfc76483264be76edd9c10c066cba7332f8022f39649840ec879910160405180910390a4505050565b6001600160a01b03808216600090815260016020818152604080842033855282529283902083516060810185528154909516808652928101549185019190915260020154918301919091526105935760405162461bcd60e51b815260040161012690610809565b80516020820151604051632142170760e11b815230600482015233602482015260448101919091526001600160a01b03909116906342842e0e90606401600060405180830381600087803b1580156105ea57600080fd5b505af11580156105fe573d6000803e3d6000fd5b505060408051606081018252600080825260208083018281528385018381526001600160a01b03998a168452600180845286852033865290935294909220925183546001600160a01b0319169816979097178255519581019590955551600290940193909355505050565b600080805b83518110156106ef57600084828151811061068b5761068b6108fa565b01602001516001600160f81b03198116915060f81c603081108015906106b2575060398111155b156106da576106c26030826108b2565b6106cd85600a610893565b6106d7919061087b565b93505b505080806106e7906108c9565b91505061066e565b5092915050565b80356001600160a01b038116811461070d57600080fd5b919050565b60006020828403121561072457600080fd5b61072d826106f6565b9392505050565b60008060008060006080868803121561074c57600080fd5b610755866106f6565b9450610763602087016106f6565b935060408601359250606086013567ffffffffffffffff8082111561078757600080fd5b818801915088601f83011261079b57600080fd5b8135818111156107aa57600080fd5b8960208285010111156107bc57600080fd5b9699959850939650602001949392505050565b600080604083850312156107e257600080fd5b6107eb836106f6565b946020939093013593505050565b8183823760009101908152919050565b60208082526028908201527f536166655472616e736665724e46543a204e6f207472616e7366657220696e2060408201526770726f677265737360c01b606082015260800190565b6000808585111561086157600080fd5b8386111561086e57600080fd5b5050820193919092039150565b6000821982111561088e5761088e6108e4565b500190565b60008160001904831182151516156108ad576108ad6108e4565b500290565b6000828210156108c4576108c46108e4565b500390565b60006000198214156108dd576108dd6108e4565b5060010190565b634e487b7160e01b600052601160045260246000fd5b634e487b7160e01b600052603260045260246000fdfea264697066735822122007840d64390388a2ce01f3dca2be207cd62b037f6dc852ed8cbdc0b1dbfa4fe564736f6c63430008060033",
  "linkReferences": {},
  "deployedLinkReferences": {}
}