{
  "_format": "hh-sol-artifact-1",
  "contractName": "SafeTransfer",
  "sourceName": "contracts/SafeTransfer.sol",
  "abi": [
    {
      "anonymous": false,
      "inputs": [
        {
          "indexed": true,
          "internalType": "address",
          "name": "_from",
          "type": "address"
        },
        {
          "indexed": true,
          "internalType": "address",
          "name": "_to",
          "type": "address"
        },
        {
          "indexed": true,
          "internalType": "uint256",
          "name": "amount",
          "type": "uint256"
        }
      ],
      "name": "SafeTransferComplete",
      "type": "event"
    },
    {
      "inputs": [
        {
          "internalType": "address",
          "name": "_from",
          "type": "address"
        },
        {
          "internalType": "uint256",
          "name": "_secret",
          "type": "uint256"
        }
      ],
      "name": "completeTransfer",
      "outputs": [],
      "stateMutability": "nonpayable",
      "type": "function"
    },
    {
      "inputs": [
        {
          "internalType": "address",
          "name": "_from",
          "type": "address"
        }
      ],
      "name": "getTransfer",
      "outputs": [
        {
          "internalType": "uint256",
          "name": "",
          "type": "uint256"
        }
      ],
      "stateMutability": "view",
      "type": "function"
    },
    {
      "inputs": [],
      "name": "initialize",
      "outputs": [],
      "stateMutability": "nonpayable",
      "type": "function"
    },
    {
      "inputs": [
        {
          "internalType": "address",
          "name": "_to",
          "type": "address"
        },
        {
          "internalType": "uint256",
          "name": "_secret",
          "type": "uint256"
        }
      ],
      "name": "initiateTransfer",
      "outputs": [],
      "stateMutability": "payable",
      "type": "function"
    },
    {
      "inputs": [
        {
          "internalType": "address",
          "name": "_to",
          "type": "address"
        }
      ],
      "name": "pullTransfer",
      "outputs": [],
      "stateMutability": "nonpayable",
      "type": "function"
    }
  ],
  "bytecode": "0x608060405234801561001057600080fd5b506106d9806100206000396000f3fe60806040526004361061004a5760003560e01c80638129fc1c1461004f578063954b030c14610066578063b099e8de14610086578063b504cd1e146100a6578063db0d5175146100b9575b600080fd5b34801561005b57600080fd5b5061006461010c565b005b34801561007257600080fd5b50610064610081366004610634565b6101c4565b34801561009257600080fd5b506100646100a1366004610612565b610327565b6100646100b4366004610634565b6103fe565b3480156100c557600080fd5b506100fa6100d4366004610612565b6001600160a01b0316600090815260016020908152604080832033845290915290205490565b60405190815260200160405180910390f35b600054610100900460ff1680610125575060005460ff16155b61018d5760405162461bcd60e51b815260206004820152602e60248201527f496e697469616c697a61626c653a20636f6e747261637420697320616c72656160448201526d191e481a5b9a5d1a585b1a5e995960921b60648201526084015b60405180910390fd5b600054610100900460ff161580156101af576000805461ffff19166101011790555b80156101c1576000805461ff00191690555b50565b6001600160a01b03821660009081526001602090815260408083203384529091529020546102045760405162461bcd60e51b81526004016101849061065e565b6001600160a01b038216600090815260026020908152604080832033845290915290205480156102a25780821461027d5760405162461bcd60e51b815260206004820152601e60248201527f536166655472616e736665723a20496e636f72726563742073656372657400006044820152606401610184565b6001600160a01b03831660009081526002602090815260408083203384529091528120555b6001600160a01b038316600090815260016020908152604080832033808552925290912054906102d290826104d8565b6001600160a01b038416600081815260016020908152604080832033808552925280832083905551849391927f999f4f64d1ceb4eb6dd132de16b4f64d4608a154b3a00f37c8d5afad841250e291a450505050565b3360009081526001602090815260408083206001600160a01b03851684529091529020546103675760405162461bcd60e51b81526004016101849061065e565b3360008181526001602090815260408083206001600160a01b03861684529091529020549061039690826104d8565b3360008181526001602090815260408083206001600160a01b038716808552908352818420849055938352600282528083209383529290522054156103fa573360009081526002602090815260408083206001600160a01b03861684529091528120555b5050565b3360009081526001602090815260408083206001600160a01b0386168452909152902054156104825760405162461bcd60e51b815260206004820152602a60248201527f536166655472616e736665723a205472616e7366657220616c726561647920696044820152696e2070726f677265737360b01b6064820152608401610184565b3360009081526001602090815260408083206001600160a01b0386168452909152902034905580156103fa573360009081526002602090815260408083206001600160a01b038616845290915290208190555050565b804710156105285760405162461bcd60e51b815260206004820152601d60248201527f416464726573733a20696e73756666696369656e742062616c616e63650000006044820152606401610184565b6000826001600160a01b03168260405160006040518083038185875af1925050503d8060008114610575576040519150601f19603f3d011682016040523d82523d6000602084013e61057a565b606091505b50509050806105f15760405162461bcd60e51b815260206004820152603a60248201527f416464726573733a20756e61626c6520746f2073656e642076616c75652c207260448201527f6563697069656e74206d617920686176652072657665727465640000000000006064820152608401610184565b505050565b80356001600160a01b038116811461060d57600080fd5b919050565b60006020828403121561062457600080fd5b61062d826105f6565b9392505050565b6000806040838503121561064757600080fd5b610650836105f6565b946020939093013593505050565b60208082526025908201527f536166655472616e736665723a204e6f207472616e7366657220696e2070726f604082015264677265737360d81b60608201526080019056fea2646970667358221220dd80af21b6587d2f2283f02a3bc1c945f3d0ef6b5da551c796fdc1c55dc5f05a64736f6c63430008060033",
  "linkReferences": {},
  "deployedLinkReferences": {}
}