{
  "_format": "hh-sol-artifact-1",
  "contractName": "TestNFT",
  "sourceName": "contracts/TestNFT.sol",
  "abi": [
    {
      "anonymous": false,
      "inputs": [
        {
          "indexed": true,
          "internalType": "address",
          "name": "owner",
          "type": "address"
        },
        {
          "indexed": true,
          "internalType": "address",
          "name": "approved",
          "type": "address"
        },
        {
          "indexed": true,
          "internalType": "uint256",
          "name": "tokenId",
          "type": "uint256"
        }
      ],
      "name": "Approval",
      "type": "event"
    },
    {
      "anonymous": false,
      "inputs": [
        {
          "indexed": true,
          "internalType": "address",
          "name": "owner",
          "type": "address"
        },
        {
          "indexed": true,
          "internalType": "address",
          "name": "operator",
          "type": "address"
        },
        {
          "indexed": false,
          "internalType": "bool",
          "name": "approved",
          "type": "bool"
        }
      ],
      "name": "ApprovalForAll",
      "type": "event"
    },
    {
      "anonymous": false,
      "inputs": [
        {
          "indexed": true,
          "internalType": "address",
          "name": "from",
          "type": "address"
        },
        {
          "indexed": true,
          "internalType": "address",
          "name": "to",
          "type": "address"
        },
        {
          "indexed": true,
          "internalType": "uint256",
          "name": "tokenId",
          "type": "uint256"
        }
      ],
      "name": "Transfer",
      "type": "event"
    },
    {
      "inputs": [
        {
          "internalType": "address",
          "name": "to",
          "type": "address"
        },
        {
          "internalType": "uint256",
          "name": "tokenId",
          "type": "uint256"
        }
      ],
      "name": "approve",
      "outputs": [],
      "stateMutability": "nonpayable",
      "type": "function"
    },
    {
      "inputs": [
        {
          "internalType": "address",
          "name": "owner",
          "type": "address"
        }
      ],
      "name": "balanceOf",
      "outputs": [
        {
          "internalType": "uint256",
          "name": "",
          "type": "uint256"
        }
      ],
      "stateMutability": "view",
      "type": "function"
    },
    {
      "inputs": [
        {
          "internalType": "uint256",
          "name": "tokenId",
          "type": "uint256"
        }
      ],
      "name": "getApproved",
      "outputs": [
        {
          "internalType": "address",
          "name": "",
          "type": "address"
        }
      ],
      "stateMutability": "view",
      "type": "function"
    },
    {
      "inputs": [
        {
          "internalType": "string",
          "name": "name",
          "type": "string"
        },
        {
          "internalType": "string",
          "name": "symbol",
          "type": "string"
        },
        {
          "internalType": "string",
          "name": "baseTokenURI",
          "type": "string"
        }
      ],
      "name": "initialize",
      "outputs": [],
      "stateMutability": "nonpayable",
      "type": "function"
    },
    {
      "inputs": [
        {
          "internalType": "address",
          "name": "owner",
          "type": "address"
        },
        {
          "internalType": "address",
          "name": "operator",
          "type": "address"
        }
      ],
      "name": "isApprovedForAll",
      "outputs": [
        {
          "internalType": "bool",
          "name": "",
          "type": "bool"
        }
      ],
      "stateMutability": "view",
      "type": "function"
    },
    {
      "inputs": [
        {
          "internalType": "address",
          "name": "to",
          "type": "address"
        },
        {
          "internalType": "uint256",
          "name": "tokenId",
          "type": "uint256"
        }
      ],
      "name": "mint",
      "outputs": [],
      "stateMutability": "nonpayable",
      "type": "function"
    },
    {
      "inputs": [],
      "name": "name",
      "outputs": [
        {
          "internalType": "string",
          "name": "",
          "type": "string"
        }
      ],
      "stateMutability": "view",
      "type": "function"
    },
    {
      "inputs": [
        {
          "internalType": "uint256",
          "name": "tokenId",
          "type": "uint256"
        }
      ],
      "name": "ownerOf",
      "outputs": [
        {
          "internalType": "address",
          "name": "",
          "type": "address"
        }
      ],
      "stateMutability": "view",
      "type": "function"
    },
    {
      "inputs": [
        {
          "internalType": "address",
          "name": "from",
          "type": "address"
        },
        {
          "internalType": "address",
          "name": "to",
          "type": "address"
        },
        {
          "internalType": "uint256",
          "name": "tokenId",
          "type": "uint256"
        }
      ],
      "name": "safeTransferFrom",
      "outputs": [],
      "stateMutability": "nonpayable",
      "type": "function"
    },
    {
      "inputs": [
        {
          "internalType": "address",
          "name": "from",
          "type": "address"
        },
        {
          "internalType": "address",
          "name": "to",
          "type": "address"
        },
        {
          "internalType": "uint256",
          "name": "tokenId",
          "type": "uint256"
        },
        {
          "internalType": "bytes",
          "name": "_data",
          "type": "bytes"
        }
      ],
      "name": "safeTransferFrom",
      "outputs": [],
      "stateMutability": "nonpayable",
      "type": "function"
    },
    {
      "inputs": [
        {
          "internalType": "address",
          "name": "operator",
          "type": "address"
        },
        {
          "internalType": "bool",
          "name": "approved",
          "type": "bool"
        }
      ],
      "name": "setApprovalForAll",
      "outputs": [],
      "stateMutability": "nonpayable",
      "type": "function"
    },
    {
      "inputs": [
        {
          "internalType": "bytes4",
          "name": "interfaceId",
          "type": "bytes4"
        }
      ],
      "name": "supportsInterface",
      "outputs": [
        {
          "internalType": "bool",
          "name": "",
          "type": "bool"
        }
      ],
      "stateMutability": "view",
      "type": "function"
    },
    {
      "inputs": [],
      "name": "symbol",
      "outputs": [
        {
          "internalType": "string",
          "name": "",
          "type": "string"
        }
      ],
      "stateMutability": "view",
      "type": "function"
    },
    {
      "inputs": [
        {
          "internalType": "uint256",
          "name": "tokenId",
          "type": "uint256"
        }
      ],
      "name": "tokenURI",
      "outputs": [
        {
          "internalType": "string",
          "name": "",
          "type": "string"
        }
      ],
      "stateMutability": "view",
      "type": "function"
    },
    {
      "inputs": [
        {
          "internalType": "address",
          "name": "from",
          "type": "address"
        },
        {
          "internalType": "address",
          "name": "to",
          "type": "address"
        },
        {
          "internalType": "uint256",
          "name": "tokenId",
          "type": "uint256"
        }
      ],
      "name": "transferFrom",
      "outputs": [],
      "stateMutability": "nonpayable",
      "type": "function"
    }
  ],
  "bytecode": "0x608060405234801561001057600080fd5b506117ed806100206000396000f3fe608060405234801561001057600080fd5b50600436106100f55760003560e01c80636352211e11610097578063a6487c5311610066578063a6487c53146101ff578063b88d4fde14610212578063c87b56dd14610225578063e985e9c51461023857600080fd5b80636352211e146101b057806370a08231146101c357806395d89b41146101e4578063a22cb465146101ec57600080fd5b8063095ea7b3116100d3578063095ea7b31461016257806323b872dd1461017757806340c10f191461018a57806342842e0e1461019d57600080fd5b806301ffc9a7146100fa57806306fdde0314610122578063081812fc14610137575b600080fd5b61010d6101083660046113f9565b610274565b60405190151581526020015b60405180910390f35b61012a6102c6565b604051610119919061156c565b61014a6101453660046114bb565b610358565b6040516001600160a01b039091168152602001610119565b6101756101703660046113cf565b6103f2565b005b6101756101853660046112db565b610508565b6101756101983660046113cf565b610539565b6101756101ab3660046112db565b610547565b61014a6101be3660046114bb565b610562565b6101d66101d136600461128d565b6105d9565b604051908152602001610119565b61012a610660565b6101756101fa366004611393565b61066f565b61017561020d366004611433565b610734565b610175610220366004611317565b6107ae565b61012a6102333660046114bb565b6107e0565b61010d6102463660046112a8565b6001600160a01b039182166000908152606a6020908152604080832093909416825291909152205460ff1690565b60006001600160e01b031982166380ac58cd60e01b14806102a557506001600160e01b03198216635b5e139f60e01b145b806102c057506301ffc9a760e01b6001600160e01b03198316145b92915050565b6060606580546102d5906116df565b80601f0160208091040260200160405190810160405280929190818152602001828054610301906116df565b801561034e5780601f106103235761010080835404028352916020019161034e565b820191906000526020600020905b81548152906001019060200180831161033157829003601f168201915b5050505050905090565b6000818152606760205260408120546001600160a01b03166103d65760405162461bcd60e51b815260206004820152602c60248201527f4552433732313a20617070726f76656420717565727920666f72206e6f6e657860448201526b34b9ba32b73a103a37b5b2b760a11b60648201526084015b60405180910390fd5b506000908152606960205260409020546001600160a01b031690565b60006103fd82610562565b9050806001600160a01b0316836001600160a01b0316141561046b5760405162461bcd60e51b815260206004820152602160248201527f4552433732313a20617070726f76616c20746f2063757272656e74206f776e656044820152603960f91b60648201526084016103cd565b336001600160a01b038216148061048757506104878133610246565b6104f95760405162461bcd60e51b815260206004820152603860248201527f4552433732313a20617070726f76652063616c6c6572206973206e6f74206f7760448201527f6e6572206e6f7220617070726f76656420666f7220616c6c000000000000000060648201526084016103cd565b61050383836108bb565b505050565b6105123382610929565b61052e5760405162461bcd60e51b81526004016103cd9061161f565b610503838383610a20565b6105438282610bc0565b5050565b610503838383604051806020016040528060008152506107ae565b6000818152606760205260408120546001600160a01b0316806102c05760405162461bcd60e51b815260206004820152602960248201527f4552433732313a206f776e657220717565727920666f72206e6f6e657869737460448201526832b73a103a37b5b2b760b91b60648201526084016103cd565b60006001600160a01b0382166106445760405162461bcd60e51b815260206004820152602a60248201527f4552433732313a2062616c616e636520717565727920666f7220746865207a65604482015269726f206164647265737360b01b60648201526084016103cd565b506001600160a01b031660009081526068602052604090205490565b6060606680546102d5906116df565b6001600160a01b0382163314156106c85760405162461bcd60e51b815260206004820152601960248201527f4552433732313a20617070726f766520746f2063616c6c65720000000000000060448201526064016103cd565b336000818152606a602090815260408083206001600160a01b03871680855290835292819020805460ff191686151590811790915590519081529192917f17307eab39ab6107e8899845ad3d59bd9653f200f220920489ca2b5937696c31910160405180910390a35050565b600054610100900460ff168061074d575060005460ff16155b6107695760405162461bcd60e51b81526004016103cd906115d1565b600054610100900460ff1615801561078b576000805461ffff19166101011790555b610796848484610d02565b80156107a8576000805461ff00191690555b50505050565b6107b83383610929565b6107d45760405162461bcd60e51b81526004016103cd9061161f565b6107a884848484610d74565b6000818152606760205260409020546060906001600160a01b031661085f5760405162461bcd60e51b815260206004820152602f60248201527f4552433732314d657461646174613a2055524920717565727920666f72206e6f60448201526e3732bc34b9ba32b73a103a37b5b2b760891b60648201526084016103cd565b6000610869610da7565b9050600081511161088957604051806020016040528060008152506108b4565b8061089384610db6565b6040516020016108a4929190611500565b6040516020818303038152906040525b9392505050565b600081815260696020526040902080546001600160a01b0319166001600160a01b03841690811790915581906108f082610562565b6001600160a01b03167f8c5be1e5ebec7d5bd14f71427d1e84f3dd0314c0f7b2291e5b200ac8c7c3b92560405160405180910390a45050565b6000818152606760205260408120546001600160a01b03166109a25760405162461bcd60e51b815260206004820152602c60248201527f4552433732313a206f70657261746f7220717565727920666f72206e6f6e657860448201526b34b9ba32b73a103a37b5b2b760a11b60648201526084016103cd565b60006109ad83610562565b9050806001600160a01b0316846001600160a01b031614806109e85750836001600160a01b03166109dd84610358565b6001600160a01b0316145b80610a1857506001600160a01b038082166000908152606a602090815260408083209388168352929052205460ff165b949350505050565b826001600160a01b0316610a3382610562565b6001600160a01b031614610a9b5760405162461bcd60e51b815260206004820152602960248201527f4552433732313a207472616e73666572206f6620746f6b656e2074686174206960448201526839903737ba1037bbb760b91b60648201526084016103cd565b6001600160a01b038216610afd5760405162461bcd60e51b8152602060048201526024808201527f4552433732313a207472616e7366657220746f20746865207a65726f206164646044820152637265737360e01b60648201526084016103cd565b610b086000826108bb565b6001600160a01b0383166000908152606860205260408120805460019290610b3190849061169c565b90915550506001600160a01b0382166000908152606860205260408120805460019290610b5f908490611670565b909155505060008181526067602052604080822080546001600160a01b0319166001600160a01b0386811691821790925591518493918716917fddf252ad1be2c89b69c2b068fc378daa952ba7f163c4a11628f55a4df523b3ef91a4505050565b6001600160a01b038216610c165760405162461bcd60e51b815260206004820181905260248201527f4552433732313a206d696e7420746f20746865207a65726f206164647265737360448201526064016103cd565b6000818152606760205260409020546001600160a01b031615610c7b5760405162461bcd60e51b815260206004820152601c60248201527f4552433732313a20746f6b656e20616c7265616479206d696e7465640000000060448201526064016103cd565b6001600160a01b0382166000908152606860205260408120805460019290610ca4908490611670565b909155505060008181526067602052604080822080546001600160a01b0319166001600160a01b03861690811790915590518392907fddf252ad1be2c89b69c2b068fc378daa952ba7f163c4a11628f55a4df523b3ef908290a45050565b600054610100900460ff1680610d1b575060005460ff16155b610d375760405162461bcd60e51b81526004016103cd906115d1565b600054610100900460ff16158015610d59576000805461ffff19166101011790555b610d61610eb4565b610d6b8484610f20565b61079682610fb5565b610d7f848484610a20565b610d8b84848484611035565b6107a85760405162461bcd60e51b81526004016103cd9061157f565b6060609780546102d5906116df565b606081610dda5750506040805180820190915260018152600360fc1b602082015290565b8160005b8115610e045780610dee8161171a565b9150610dfd9050600a83611688565b9150610dde565b60008167ffffffffffffffff811115610e1f57610e1f61178b565b6040519080825280601f01601f191660200182016040528015610e49576020820181803683370190505b5090505b8415610a1857610e5e60018361169c565b9150610e6b600a86611735565b610e76906030611670565b60f81b818381518110610e8b57610e8b611775565b60200101906001600160f81b031916908160001a905350610ead600a86611688565b9450610e4d565b600054610100900460ff1680610ecd575060005460ff16155b610ee95760405162461bcd60e51b81526004016103cd906115d1565b600054610100900460ff16158015610f0b576000805461ffff19166101011790555b8015610f1d576000805461ff00191690555b50565b600054610100900460ff1680610f39575060005460ff16155b610f555760405162461bcd60e51b81526004016103cd906115d1565b600054610100900460ff16158015610f77576000805461ffff19166101011790555b8251610f8a906065906020860190611142565b508151610f9e906066906020850190611142565b508015610503576000805461ff0019169055505050565b600054610100900460ff1680610fce575060005460ff16155b610fea5760405162461bcd60e51b81526004016103cd906115d1565b600054610100900460ff1615801561100c576000805461ffff19166101011790555b815161101f906097906020850190611142565b508015610543576000805461ff00191690555050565b60006001600160a01b0384163b1561113757604051630a85bd0160e11b81526001600160a01b0385169063150b7a029061107990339089908890889060040161152f565b602060405180830381600087803b15801561109357600080fd5b505af19250505080156110c3575060408051601f3d908101601f191682019092526110c091810190611416565b60015b61111d573d8080156110f1576040519150601f19603f3d011682016040523d82523d6000602084013e6110f6565b606091505b5080516111155760405162461bcd60e51b81526004016103cd9061157f565b805181602001fd5b6001600160e01b031916630a85bd0160e11b149050610a18565b506001949350505050565b82805461114e906116df565b90600052602060002090601f01602090048101928261117057600085556111b6565b82601f1061118957805160ff19168380011785556111b6565b828001600101855582156111b6579182015b828111156111b657825182559160200191906001019061119b565b506111c29291506111c6565b5090565b5b808211156111c257600081556001016111c7565b600067ffffffffffffffff808411156111f6576111f661178b565b604051601f8501601f19908116603f0116810190828211818310171561121e5761121e61178b565b8160405280935085815286868601111561123757600080fd5b858560208301376000602087830101525050509392505050565b80356001600160a01b038116811461126857600080fd5b919050565b600082601f83011261127e57600080fd5b6108b4838335602085016111db565b60006020828403121561129f57600080fd5b6108b482611251565b600080604083850312156112bb57600080fd5b6112c483611251565b91506112d260208401611251565b90509250929050565b6000806000606084860312156112f057600080fd5b6112f984611251565b925061130760208501611251565b9150604084013590509250925092565b6000806000806080858703121561132d57600080fd5b61133685611251565b935061134460208601611251565b925060408501359150606085013567ffffffffffffffff81111561136757600080fd5b8501601f8101871361137857600080fd5b611387878235602084016111db565b91505092959194509250565b600080604083850312156113a657600080fd5b6113af83611251565b9150602083013580151581146113c457600080fd5b809150509250929050565b600080604083850312156113e257600080fd5b6113eb83611251565b946020939093013593505050565b60006020828403121561140b57600080fd5b81356108b4816117a1565b60006020828403121561142857600080fd5b81516108b4816117a1565b60008060006060848603121561144857600080fd5b833567ffffffffffffffff8082111561146057600080fd5b61146c8783880161126d565b9450602086013591508082111561148257600080fd5b61148e8783880161126d565b935060408601359150808211156114a457600080fd5b506114b18682870161126d565b9150509250925092565b6000602082840312156114cd57600080fd5b5035919050565b600081518084526114ec8160208601602086016116b3565b601f01601f19169290920160200192915050565b600083516115128184602088016116b3565b8351908301906115268183602088016116b3565b01949350505050565b6001600160a01b0385811682528416602082015260408101839052608060608201819052600090611562908301846114d4565b9695505050505050565b6020815260006108b460208301846114d4565b60208082526032908201527f4552433732313a207472616e7366657220746f206e6f6e20455243373231526560408201527131b2b4bb32b91034b6b83632b6b2b73a32b960711b606082015260800190565b6020808252602e908201527f496e697469616c697a61626c653a20636f6e747261637420697320616c72656160408201526d191e481a5b9a5d1a585b1a5e995960921b606082015260800190565b60208082526031908201527f4552433732313a207472616e736665722063616c6c6572206973206e6f74206f6040820152701ddb995c881b9bdc88185c1c1c9bdd9959607a1b606082015260800190565b6000821982111561168357611683611749565b500190565b6000826116975761169761175f565b500490565b6000828210156116ae576116ae611749565b500390565b60005b838110156116ce5781810151838201526020016116b6565b838111156107a85750506000910152565b600181811c908216806116f357607f821691505b6020821081141561171457634e487b7160e01b600052602260045260246000fd5b50919050565b600060001982141561172e5761172e611749565b5060010190565b6000826117445761174461175f565b500690565b634e487b7160e01b600052601160045260246000fd5b634e487b7160e01b600052601260045260246000fd5b634e487b7160e01b600052603260045260246000fd5b634e487b7160e01b600052604160045260246000fd5b6001600160e01b031981168114610f1d57600080fdfea264697066735822122022eac72cb86567a20de96b8c322d14439857b3234fe53d4570b71285564bbf8864736f6c63430008060033",
  "linkReferences": {},
  "deployedLinkReferences": {}
}